:100000000C945F000C9487000C9487000C9487007C
:100010000C9487000C9487000C9487000C94870044
:100020000C9487000C9487000C9487000C94870034
:100030000C9487000C9487000C9487000C94870024
:100040000C94E1000C9487000C94A0030C94D20350
:100050000C9487000C9487000C9487000C94870004
:100060000C9487000C948700000000080002010037
:100070000003040700000000000000000102040863
:100080001020408001020408102001020408102002
:10009000040404040404040402020202020203032E
:1000A0000303030300000000250028002B000000CC
:1000B0000000240027002A00960002049C0011245E
:1000C0001FBECFEFD8E0DEBFCDBF11E0A0E0B1E0B2
:1000D000E0E5F0E102C005900D92AE32B107D9F72C
:1000E00021E0AEE2B1E001C01D92AE3DB207E1F702
:1000F00010E0CCEBD0E004C02297FE010E94D605B0
:10010000C83BD107C9F70E94A2050C941B080C94A8
:10011000000061E08DE00E94EC0126E040E855E23D
:1001200060E070E08DE391E00C943E036FE171E0DC
:100130008EE291E00C9415058EE291E00C94A704F8
:100140008DE391E00E945B02892B81F06AE070E010
:1001500080E090E00E944E018DE391E00E947402E5
:10016000682F8EE291E00E946F05EACF8091320104
:1001700090913301892B21F16EE271E08DE391E0E2
:100180000E94950466E071E08EE291E00E94820593
:10019000882321F061E08DE00E94250269E071E092
:1001A0008EE291E00E948205882321F060E08DE0DC
:1001B0000E9425026FE171E08EE291E00C942B0524
:1001C00008951F920F920FB60F9211242F933F9311
:1001D0008F939F93AF93BF93809135019091360198
:1001E000A0913701B09138013091340123E0230F01
:1001F0002D3720F40196A11DB11D05C026E8230F5F
:100200000296A11DB11D2093340180933501909376
:100210003601A0933701B093380180913901909154
:100220003A01A0913B01B0913C010196A11DB11D85
:100230008093390190933A01A0933B01B0933C0124
:10024000BF91AF919F918F913F912F910F900FBED2
:100250000F901F9018953FB7F894809139019091B5
:100260003A01A0913B01B0913C0126B5A89B05C085
:100270002F3F19F00196A11DB11D3FBF6627782FB2
:10028000892F9A2F620F711D811D911D42E0660F0B
:10029000771F881F991F4A95D1F708958F929F92D3
:1002A000AF92BF92CF92DF92EF92FF926B017C01EF
:1002B0000E942B014B015C01C114D104E104F10443
:1002C000F1F00E94B1050E942B01681979098A0991
:1002D0009B09683E73408105910570F321E0C21AC5
:1002E000D108E108F10888EE880E83E0981EA11C71
:1002F000B11CC114D104E104F10429F7DDCFFF9052
:10030000EF90DF90CF90BF90AF909F908F90089527
:10031000789484B5826084BD84B5816084BD85B5E0
:10032000826085BD85B5816085BDEEE6F0E08081A7
:1003300081608083E1E8F0E01082808182608083C8
:10034000808181608083E0E8F0E08081816080834B
:10035000E1EBF0E0808184608083E0EBF0E080817D
:1003600081608083EAE7F0E080818460808380811F
:1003700082608083808181608083808180688083C7
:100380001092C1000895833081F028F4813099F0F3
:100390008230A1F008958730A9F08830B9F0843018
:1003A000D1F4809180008F7D03C0809180008F7791
:1003B00080938000089584B58F7702C084B58F7DC7
:1003C00084BD08958091B0008F7703C08091B00004
:1003D0008F7D8093B0000895CF93DF9390E0FC0170
:1003E000E458FF4F2491FC01E057FF4F849188238C
:1003F00049F190E0880F991FFC01E255FF4FA5914C
:10040000B4918C559F4FFC01C591D4919FB7611158
:1004100008C0F8948C91209582238C938881822344
:100420000AC0623051F4F8948C91322F30958323B6
:100430008C938881822B888304C0F8948C91822BC2
:100440008C939FBFDF91CF9108950F931F93CF930C
:10045000DF931F92CDB7DEB7282F30E0F901E859BE
:10046000FF4F8491F901E458FF4F1491F901E057CF
:10047000FF4F04910023C9F0882321F069830E9473
:10048000C3016981E02FF0E0EE0FFF1FEC55FF4F35
:10049000A591B4919FB7F8948C91611103C0109508
:1004A000812301C0812B8C939FBF0F90DF91CF914F
:1004B0001F910F910895FC01818D228D90E0805C49
:1004C0009F4F821B91098F7399270895FC01918D8D
:1004D000828D981731F0828DE80FF11D858D90E0A7
:1004E00008958FEF9FEF0895FC01918D828D9817ED
:1004F00061F0828DDF01A80FB11D5D968C91928D08
:100500009F5F9F73928F90E008958FEF9FEF089504
:1005100088EF93E0892B49F080E090E0892B29F067
:100520000E94F80381110C9400000895FC01848D51
:10053000DF01A80FB11DA35ABF4F2C91848D90E00D
:1005400001968F739927848FA689B7892C93A089E8
:10055000B1898C9180648C93938D848D981306C09F
:100560000288F389E02D80818F7D80830895CF9369
:10057000DF93EC01888D8823C9F0EA89FB898081AB
:1005800085FD05C0A889B9898C9186FD0FC00FB67D
:1005900007FCF5CF808185FFF2CFA889B9898C91BE
:1005A00085FFEDCFCE010E949602E7CFDF91CF917C
:1005B0000895CF92DF92FF920F931F93CF93DF9313
:1005C0001F92CDB7DEB76C0181E0D60158968C93AF
:1005D00058975B969C915B975C968C915C9798136F
:1005E00007C05096ED91FC915197808185FD2EC0FA
:1005F000F601038D10E00F5F1F4F0F731127F02ED0
:10060000F601848DF81211C00FB607FCF9CFD601A0
:100610005096ED91FC915197808185FFF1CFC601F5
:1006200069830E9496026981EBCF838DE80FF11DEB
:10063000E35AFF4F6083D6015B960C935B9752960B
:10064000ED91FC915397808180620CC0D601569643
:10065000ED91FC91579760835096ED91FC915197E5
:1006600080818064808381E090E00F90DF91CF9162
:100670001F910F91FF90DF90CF900895BF92CF927E
:10068000DF92EF92FF92CF93DF93EC016A017B013F
:10069000B22EE889F98982E08083411581EE5807FE
:1006A00061057105A1F060E079E08DE390E0A701BC
:1006B00096010E94B2052150310941095109569510
:1006C000479537952795211580E1380798F0E889F7
:1006D000F989108260E874E88EE190E0A701960144
:1006E0000E94B2052150310941095109569547959B
:1006F00037952795EC85FD853083EE85FF85208332
:10070000188EEC89FD89B082EA89FB89808180613D
:100710008083EA89FB89808188608083EA89FB89FC
:10072000808180688083EA89FB8980818F7D8083D6
:10073000DF91CF91FF90EF90DF90CF90BF90089521
:100740001F920F920FB60F9211242F938F939F93A6
:10075000EF93FF93E0914D01F0914E018081E09184
:100760005301F091540182FD12C090818091560195
:100770008F5F8F7320915701821751F0E0915601DE
:10078000F0E0E35CFE4F958F8093560101C08081BD
:10079000FF91EF919F918F912F910F900FBE0F902E
:1007A0001F9018951F920F920FB60F9211242F933E
:1007B0003F934F935F936F937F938F939F93AF93E9
:1007C000BF93EF93FF938DE391E00E949602FF9118
:1007D000EF91BF91AF919F918F917F916F915F91B9
:1007E0004F913F912F910F900FBE0F901F90189532
:1007F0008DE391E00E945B0221E0892B09F420E067
:10080000822F08951092400110923F0188EE93E0EC
:10081000A0E0B0E08093410190934201A093430196
:10082000B093440181E191E090933E0180933D01BA
:1008300085EC90E090934A018093490184EC90E02C
:1008400090934C0180934B0180EC90E090934E018B
:1008500080934D0181EC90E09093500180934F0183
:1008600082EC90E0909352018093510186EC90E0ED
:1008700090935401809353011092560110925701A6
:1008800010925801109259010895CF92DF92EF9281
:10089000FF920F931F93CF93DF937C016A01EB01CB
:1008A00000E010E00C151D0571F06991D701ED9184
:1008B000FC910190F081E02DC7010995892B19F079
:1008C0000F5F1F4FEFCFC801DF91CF911F910F91A5
:1008D000FF90EF90DF90CF9008956115710581F042
:1008E000DB010D900020E9F7AD0141505109461B95
:1008F000570BDC01ED91FC910280F381E02D09940E
:1009000080E090E00895DC01ED91FC91DB0114960C
:100910004D915C9115976D917C910280F381E02D52
:1009200009946DE171E00C946D040F931F93CF93C4
:10093000DF93EC010E9483048C01CE010E9491049C
:10094000800F911FDF91CF911F910F910895FC01AE
:10095000808191810C947206CF93DF93EC018881A2
:100960009981009711F00E947206198218821D82E7
:100970001C821B821A82DF91CF9108950F931F93DF
:10098000CF93DF93EC018B016F5F7F4F888199815B
:100990000E940107009731F0998388831B830A83A3
:1009A00081E001C080E0DF91CF911F910F91089508
:1009B000CF93DF93EC0188819981892B29F08A817B
:1009C0009B818617970760F4CE010E94BE0488239E
:1009D00041F08C819D81892B19F4E881F981108285
:1009E00081E0DF91CF910895EF92FF920F931F93D3
:1009F000CF93DF93EC017B018A01BA010E94D804F6
:100A0000811104C0CE010E94AC0407C01D830C8379
:100A1000B701888199810E94DD07CE01DF91CF91D6
:100A20001F910F91FF90EF900895FC0111821082A9
:100A300013821282158214826115710559F0FB012F
:100A400001900020E9F7AF0141505109461B570BB7
:100A50000C94F4040895CF93DF93EC0161157105B4
:100A600061F0FB0101900020E9F7AF01415051090D
:100A7000461B570B0E94F40402C00E94AC04CE0136
:100A8000DF91CF910895EF92FF920F931F93CF9331
:100A9000DF93EC017B010C811D816115710511F45F
:100AA00080E016C04115510591F0040F151FB801E3
:100AB0000E94D8048823A1F3288139818C819D81EB
:100AC000B701820F931F0E94DD071D830C8381E015
:100AD000DF91CF911F910F91FF90EF900895CF93E9
:100AE000DF9300D0CDB7DEB769831A8241E050E0D2
:100AF000BE016F5F7F4F0E9443050F900F90DF9103
:100B0000CF910895FC0124813581232B31F421E01C
:100B100061157105A1F0FB0108C0FC018081918184
:100B20006115710531F421E0FC018081882339F0E1
:100B300005C00E94D40721E0892B09F020E0822F14
:100B4000089508950E9488010E94A1050E948900CD
:100B5000C8E8D2E00E94A0002097E1F30E9488023A
:100B6000F9CF0895A1E21A2EAA1BBB1BFD010DC0EF
:100B7000AA1FBB1FEE1FFF1FA217B307E407F5074D
:100B800020F0A21BB30BE40BF50B661F771F881F29
:100B9000991F1A9469F760957095809590959B01BF
:100BA000AC01BD01CF010895EE0FFF1F0590F49138
:100BB000E02D0994CF93DF938230910510F482E009
:100BC00090E0E091DC01F091DD0120E030E0A0E078
:100BD000B0E0309739F14081518148175907B8F09A
:100BE0004817590771F482819381109729F0139661
:100BF0009C938E9312972CC09093DD018093DC011F
:100C000027C02115310531F04217530718F0A9010B
:100C1000DB0101C0EF019A01BD01DF010280F38118
:100C2000E02DD7CF21153105F9F0281B390B2430E1
:100C3000310580F48A819B816115710521F0FB01EA
:100C40009383828304C09093DD018093DC01FE01D5
:100C5000329644C0FE01E20FF31F8193919322501C
:100C60003109398328833AC02091DA013091DB01C0
:100C7000232B41F420910201309103013093DB01D9
:100C80002093DA01209100013091010121153105F5
:100C900041F42DB73EB74091040150910501241B4A
:100CA000350BE091DA01F091DB01E217F307A0F4D4
:100CB0002E1B3F0B2817390778F0AC014E5F5F4FB2
:100CC0002417350748F04E0F5F1F5093DB01409308
:100CD000DA018193919302C0E0E0F0E0CF01DF916F
:100CE000CF910895CF93DF93009709F487C0FC015B
:100CF000329713821282C091DC01D091DD012097DE
:100D000081F420813181280F391F8091DA0190917F
:100D1000DB018217930779F5F093DB01E093DA01A9
:100D20006DC0DE0120E030E0AE17BF0750F4129630
:100D30004D915C9113979D014115510509F1DA011F
:100D4000F3CFB383A28340815181840F951F8A170B
:100D50009B0771F48D919C911197840F951F0296BA
:100D60009183808312968D919C91139793838283B4
:100D70002115310529F4F093DD01E093DC013EC03B
:100D8000D9011396FC93EE9312974D915D91A40FA8
:100D9000B51FEA17FB0779F480819181840F951FB5
:100DA0000296D90111969C938E938281938113961A
:100DB0009C938E931297E0E0F0E08A819B810097EC
:100DC00019F0FE01EC01F9CFCE010296288139819C
:100DD000820F931F2091DA013091DB012817390728
:100DE00069F4309729F41092DD011092DC0102C001
:100DF00013821282D093DB01C093DA01DF91CF918D
:100E00000895A0E0B0E0E7E0F7E00C94E807EC011B
:100E1000CB01209719F40E94DA05B8C0FE01E60F55
:100E2000F71F9E0122503109E217F30708F4ACC006
:100E3000D9010D911C91119706171707B8F00530CD
:100E4000110508F49FC0A8014450510946175707DF
:100E500008F498C002501109061B170B0193119357
:100E60006D937C93CF010E9472068CC05B01A01A27
:100E7000B10A4E01800E911EA091DC01B091DD01FE
:100E8000612C712C60E070E0109709F449C0A8153E
:100E9000B905C9F5ED90FC901197670142E0C40EC9
:100EA000D11CCA14DB0478F147018A189B0864013D
:100EB00042E0C40ED11C1296BC9012971396AC91CE
:100EC000B5E0CB16D10440F0B282A3839182808238
:100ED000D9018D939C9309C00E5F1F4F0E0D1F1DEE
:100EE000F90111830083EB2DFA2F6115710531F0A3
:100EF000DB011396FC93EE93129744C0F093DD014F
:100F0000E093DC013FC06D917C91119766167706E6
:100F100008F43B01BD0112960D90BC91A02DB4CFF9
:100F20006091DA017091DB0168157905E9F46816C2
:100F30007906D0F44091000150910101411551050D
:100F400041F44DB75EB76091040170910501461BF5
:100F5000570BE417F507C0F4F093DB01E093DA01D7
:100F6000F901918380830EC00E94DA057C0100970D
:100F700059F0A801BE010E94CB07CE010E94720663
:100F8000C70104C0CE0102C080E090E0CDB7DEB75B
:100F9000EEE00C940408FB01DC0102C001900D920C
:100FA00041505040D8F70895FB01DC018D9101902C
:100FB00080190110D9F3990B0895FB01DC01019010
:100FC0000D920020E1F708952F923F924F925F9289
:100FD0006F927F928F929F92AF92BF92CF92DF9249
:100FE000EF92FF920F931F93CF93DF93CDB7DEB7AE
:100FF000CA1BDB0B0FB6F894DEBF0FBECDBF099442
:101000002A88398848885F846E847D848C849B8498
:10101000AA84B984C884DF80EE80FD800C811B81A6
:10102000AA81B981CE0FD11D0FB6F894DEBF0FBED5
:10103000CDBFED01089510E0CCEBD0E004C0FE017F
:101040000E94D6052296CE3BD107C9F7F894FFCF70
:101050000000DE0180006F6E006F66660000000019
:1010600000D90245045B0274026602B7020D0A0051
:0E1070006E616E00696E66006F7666002E007F
:00000001FF
